:020000040000FA
:100000000C9462000C948A000C948A000C948A0070
:100010000C948A000C948A000C948A000C948A0038
:100020000C948A000C948A000C948A000C948A0028
:100030000C948A000C948A000C948A000C948A0018
:100040000C94A0050C948A000C9410060C94EA05FC
:100050000C948A000C948A000C948A000C948A00F8
:100060000C948A000C948A000000000024002700F1
:100070002A0000000000250028002B0000000000DE
:1000800023002600290004040404040404040202DA
:100090000202020203030303030301020408102007
:1000A0004080010204081020010204081020000012
:1000B0000008000201000003040700000000000027
:1000C0000000420611241FBECFEFD8E0DEBFCDBF37
:1000D00011E0A0E0B1E0E8E8F5E102C005900D9282
:1000E000AA35B107D9F722E0AAE5B1E001C01D9217
:1000F000A532B207E1F710E0C2E6D0E004C02197D4
:10010000FE010E94BC0AC136D107C9F70E948C06C5
:100110000C94C20A0C940000833081F028F48130E2
:1001200099F08230A9F008958730A9F08830C9F09D
:100130008430B1F4809180008F7D03C08091800075
:100140008F7780938000089584B58F7784BD08955C
:1001500084B58F7DFBCF8091B0008F778093B00006
:1001600008958091B0008F7DF9CFCF93DF93282F32
:1001700030E0F901E255FF4F8491F901E656FF4F57
:10018000D491F901EA57FF4FC491CC23A1F081111A
:100190000E948C00EC2FF0E0EE0FFF1FE458FF4FA1
:1001A000A591B491EC91ED2381E090E009F480E019
:1001B000DF91CF91089580E090E0FACF1F93CF9325
:1001C000DF93282F30E0F901E255FF4F8491F901C8
:1001D000E656FF4FD491F901EA57FF4FC491CC2363
:1001E000A9F0162F81110E948C00EC2FF0E0EE0F89
:1001F000FF1FEE58FF4FA591B4918FB7F894EC9183
:10020000111108C0D095DE23DC938FBFDF91CF9111
:100210001F910895DE2BF8CFCF93DF9390E0FC0180
:10022000E656FF4F24918A579F4FFC018491882303
:10023000D1F090E0880F991FFC01E859FF4FA5917C
:10024000B491FC01EE58FF4FC591D491623071F426
:100250009FB7F8943C91822F809583238C93E881FB
:100260002E2B28839FBFDF91CF9108958FB7F894ED
:10027000EC912E2B2C938FBFF6CF8E508064809301
:100280007C0080917A00806480937A0080917A006B
:1002900086FDFCCF80917800909179000895DC0173
:1002A000ED91FC910190F081E02D0994AF92BF9205
:1002B000CF92DF92EF92FF920F931F93CF93DF9332
:1002C0006C017B018B01040F151FEB015E01AE1861
:1002D000BF08C017D10759F06991D601ED91FC9183
:1002E0000190F081E02DC6010995892B79F7C501B0
:1002F000DF91CF911F910F91FF90EF90DF90CF9002
:10030000BF90AF900895FC01538D448D252F30E0B0
:10031000842F90E0821B930B541710F0CF96089512
:1003200001970895FC01918D828D981761F0A28D3F
:10033000AE0FBF2FB11D5D968C91928D9F5F9F7305
:10034000928F90E008958FEF9FEF0895FC01918DBB
:10035000828D981731F0828DE80FF11D858D90E028
:1003600008958FEF9FEF0895FC01918D228D892FC5
:1003700090E0805C9F4F821B91098F7399270895AD
:1003800080E791E00E94B40121E0892B09F420E08C
:10039000822F089580E090E0892B29F00E94C0010F
:1003A00081110C9400000895FC01A48DA80FB92FB1
:1003B000B11DA35ABF4F2C91848D90E001968F738D
:1003C0009927848FA689B7892C93A089B1898C91AC
:1003D000837080648C93938D848D981306C00288FB
:1003E000F389E02D80818F7D80830895EF92FF92C5
:1003F0000F931F93CF93DF93EC0181E0888F9B8D48
:100400008C8D98131AC0E889F989808185FF15C001
:100410009FB7F894EE89FF896083E889F989808124
:100420008370806480839FBF81E090E0DF91CF91F3
:100430001F910F91FF90EF900895F62E0B8D10E015
:100440000F5F1F4F0F731127E02E8C8D8E110CC084
:100450000FB607FCFACFE889F989808185FFF5CFCF
:10046000CE010E94D401F1CFEB8DEC0FFD2FF11DD9
:10047000E35AFF4FF0829FB7F8940B8FEA89FB890C
:1004800080818062CFCFCF93DF93EC01888D88236A
:10049000B9F0AA89BB89E889F9898C9185FD03C0E7
:1004A000808186FD0DC00FB607FCF7CF8C9185FFCC
:1004B000F2CF808185FFEDCFCE010E94D401E9CF3C
:1004C000DF91CF910895089590E080E00895CF9353
:1004D000DF93EC0160E08E810E94DE0061E08E819E
:1004E0000E94DE0060E08E810E94DE008BE891E0D9
:1004F0000197F1F7DF91CF910895CF92DF92EF92BC
:10050000FF920F931F93CF93DF936C017C0187E0E1
:10051000E80EF11CD0E0C0E0062F10E0B8010C2E70
:1005200002C0759567950A94E2F76170F7018191B1
:100530007F010E94DE002196C430D10579F7C60103
:10054000DF91CF911F910F91FF90EF90DF90CF90AF
:100550000C946702CF92DF92EF92FF920F931F935A
:10056000CF93DF93EC01F62E642F8C810E94DE0086
:100570008D818F3F19F060E00E94DE000F2D10E0AA
:100580008F8584FF25C06E0187E0C80ED11CF12C39
:10059000E12CB8010E2C02C0759567950A94E2F71C
:1005A0006170F60181916F010E94DE00FFEFEF1A8A
:1005B000FF0A88E0E816F10461F7CE01DF91CF91E0
:1005C0001F910F91FF90EF90DF90CF900C946702F6
:1005D000B80184E0759567958A95E1F7CE010E9490
:1005E0007D026F2DCE01DF91CF911F910F91FF9072
:1005F000EF90DF90CF900C947D0240E0682F8DE06B
:1006000092E00C94AA0281E00E94FD028BE39FE13C
:100610000197F1F70895CF93DF93823029F49091F9
:100620001C02986090931C02809320021092210279
:1006300080E48093220280E18093230280E580930E
:10064000240261E0809111020E940C01809112024B
:100650008F3F19F061E00E940C0161E0809113026C
:100660000E940C01CDE0D2E09E012D5032408091DD
:100670001C0284FD0BC084E090E021962817390706
:1006800044F461E08E810E940C01EECF88E090E09E
:10069000F4CF8BE39DE00197F1F760E080911102C8
:1006A0000E94DE0060E0809113020E94DE008091D3
:1006B00012028F3F19F060E00E94DE0080911C0260
:1006C00084FD34C063E08DE092E00E947D02CBE4C3
:1006D000D6E4CE010197F1F763E08DE092E00E944D
:1006E0007D022197F1F763E08DE092E00E947D02A8
:1006F00083E592E00197F1F762E08DE092E00E94DD
:100700007D0280911C0280620E94FD0284E0809341
:100710001D028CE00E94FD020E94030382E0809390
:100720001E0286E0DF91CF910C94FD0280620E9450
:10073000FD028BE496E40197F1F780911C02806240
:100740000E94FD0283E592E00197F1F780911C027F
:1007500080620E94FD02D5CF90912002891710F08F
:100760008FEF890FE82FF0E0E35FFD4F8489806809
:100770000C94FD0241E00E94AA0281E090E00895FD
:10078000FB0101900020E9F73197AF01461B570BA1
:10079000DC01ED91FC910280F381E02D09948F92B0
:1007A0009F92AF92BF92EF92FF920F931F93CF93BE
:1007B000DF93CDB7DEB7A1970FB6F894DEBF0FBEBB
:1007C000CDBF7C01FA01CB0119A2223008F42AE046
:1007D0008E010F5D1F4F822E912CB12CA12CBF01D9
:1007E000A50194010E949A0AF901CA016A300CF528
:1007F000605DD8016E938D01232B242B252B79F777
:1008000090E080E0109721F0BD01C7010E94C00375
:10081000A1960FB6F894DEBF0FBECDBFDF91CF918A
:100820001F910F91FF90EF90BF90AF909F908F908E
:100830000895695CDECF2F923F924F925F926F9244
:100840007F928F929F92AF92BF92CF92DF92EF9260
:10085000FF921F93CF93DF93EC016A017B01722E0D
:10086000AB019601CB01B6010E94950A60E271E0EE
:10087000811126C046015701E894B7F82FEF3FEFEA
:100880004FE75FE7C501B4010E94950A81110CC0D2
:100890002FEF3FEF4FE75FE7C501B4010E94CB08A0
:1008A00064E271E0181664F02FEF3FEF4FE75FE46A
:1008B000C701B6010E94230A1816B4F468E271E079
:1008C000CE01DF91CF911F91FF90EF90DF90CF90FD
:1008D000BF90AF909F908F907F906F905F904F9060
:1008E0003F902F900C94C0032FEF3FEF4FE75FEC4A
:1008F000C701B6010E94CB0887FDE0CF20E030E0C1
:10090000A901C701B6010E94CB08312C212C87FF19
:1009100009C06DE2CE010E944F011C01F7FAF0946C
:10092000F7F8F09410E060E070E080E09FE371166B
:1009300041F020E030E040E251E40E94D0081F5F27
:10094000F6CFA70196010E945F082B013C010E948F
:1009500042094B015C012AE0BC01A401CE010E94C6
:10096000CF037C01E20CF31C1123C1F1C501B401DA
:100970000E9471099B01AC01C301B2010E945E0893
:100980004B015C016EE2CE010E944F01E80EF91EA0
:10099000115020F120E030E040E251E4C501B40103
:1009A0000E94280A2B013C010E9442094B01B12CF4
:1009B000A12C2AE0B501A401CE010E94CF03E80ECC
:1009C000F91EC501B4010E9471099B01AC01C3016C
:1009D000B2010E945E084B015C01DACFC701DF91D2
:1009E000CF911F91FF90EF90DF90CF90BF90AF908D
:1009F0009F908F907F906F905F904F903F902F903F
:100A00000895CF92DF92EF92FF920E94030380E05D
:100A10000E94AC0380916201811135C06CE271E0EB
:100A20008DE092E00E94C0038EE00E943D017C01B7
:100A300081E00E94AC03B701FF0C880B990B0E9468
:100A400073092DE038E643E55BE30E94280A20E0C5
:100A500030E048EC52E40E94280AAB01BC0121E0DE
:100A60008DE092E00E941B046FED8DE092E00E9409
:100A70004F0163E371E08DE092E0FF90EF90DF9033
:100A8000CF900C94C003813049F565E371E08DE0AF
:100A900092E00E94C0038FE00E943D017C0181E052
:100AA0000E94AC03B701FF0C880B990B0E947309DD
:100AB00020E030E048EC52E40E94280A20E030ECCC
:100AC0004FE754E40E94D008AB01BC0120E08DE068
:100AD00092E00E941B046FE371E0CDCF823059F5A4
:100AE00061E471E08DE092E00E94C00380E10E9429
:100AF0003D016C0181E00E94AC030D2C000CEE085E
:100B0000FF082AE0B701A601F7FE0DC06DE28DE0F7
:100B100092E00E944F0144275527BA014C195D0904
:100B20006E097F092AE08DE092E0FF90EF90DF9060
:100B3000CF900C94CF03FF90EF90DF90CF9008956B
:100B40001F920F920FB60F9211242F933F938F9302
:100B50009F93AF93BF9380916C0190916D01A09191
:100B60006E01B0916F0130916B0123E0230F2D379F
:100B700058F50196A11DB11D20936B0180936C0166
:100B800090936D01A0936E01B0936F018091670106
:100B900090916801A0916901B0916A010196A11D2F
:100BA000B11D8093670190936801A0936901B09390
:100BB0006A01BF91AF919F918F913F912F910F90BB
:100BC0000FBE0F901F90189526E8230F0296A11DC7
:100BD000B11DD2CF1F920F920FB60F9211242F93F7
:100BE0003F934F935F936F937F938F939F93AF93B5
:100BF000BF93EF93FF9380E791E00E94D401FF91B0
:100C0000EF91BF91AF919F918F917F916F915F9184
:100C10004F913F912F910F900FBE0F901F901895FD
:100C20001F920F920FB60F9211242F938F939F93C1
:100C3000EF93FF93E0918001F09181018081E09139
:100C40008601F091870182FD1BC09081809189010E
:100C50008F5F8F7320918A01821741F0E0918901A3
:100C6000F0E0E059FE4F958F80938901FF91EF915D
:100C70009F918F912F910F900FBE0F901F901895FD
:100C80008081F4CFE0E7F1E01382128288EE93E0F6
:100C9000A0E0B0E084839583A683B78386E091E0EB
:100CA0009183808385EC90E09587848784EC90E045
:100CB0009787868780EC90E0918B808B81EC90E029
:100CC000938B828B82EC90E0958B848B86EC90E00A
:100CD000978B868B118E128E138E148EEDE0F2E0C0
:100CE0001382128288E191E09183808382E0848381
:100CF0008FEF858383E0868384E0878385E0808728
:100D000086E0818787E0828713861486158616869B
:100D1000178681E00C940B03789484B5826084BDBF
:100D200084B5816084BD85B5826085BD85B58160EF
:100D300085BD80916E00816080936E00109281006D
:100D40008091810082608093810080918100816028
:100D500080938100809180008160809380008091E9
:100D6000B10084608093B1008091B0008160809375
:100D7000B00080917A00846080937A0080917A003C
:100D8000826080937A0080917A00816080937A00FB
:100D900080917A00806880937A001092C10082E08E
:100DA0000E940B030E94030362E088E00E940C0192
:100DB00062E089E00E940C01E0918001F0918101E4
:100DC00082E08083E0917C01F0917D0183E080836B
:100DD000E0917E01F0917F0180E480831092880190
:100DE000E0918401F091850186E08083E0918201A9
:100DF000F0918301808180618083E0918201F09194
:100E00008301808188608083E0918201F091830179
:100E1000808180688083E0918201F09183018081EC
:100E20008F7D80830E940105C0E0D0E012E088E061
:100E30000E94B5004C0177247394892B09F4712C1E
:100E400089E00E94B5005C0101E0892B09F400E013
:100E50008FB7F894C0906C01D0906D01E0906E0156
:100E6000F0906F018FBF80910101882341F18928A3
:100E700031F58091630190916401A0916501B09179
:100E80006601A7019601281B390B4A0B5B0BDA019F
:100E9000C9018997A105B10590F0809162018F5F2A
:100EA000833008F004C1809362010E940105C09262
:100EB0006301D0926401E0926501F0926601809135
:100EC0000001882331F1AB2821F5809163019091D5
:100ED0006401A0916501B0916601A7019601281BEC
:100EE000390B4A0B5B0BDA01C9018997A105B105E2
:100EF00080F0809162018111DDC0109362010E9437
:100F00000105C0926301D0926401E0926501F09204
:100F10006601709201010093000180915E01909141
:100F20005F01A0916001B0916101A7019601281BAA
:100F3000390B4A0B5B0BDA01C901843F9140A105D3
:100F4000B10550F00E940105C0925E01D0925F0190
:100F5000E0926001F09261012FB7F89480916C01EA
:100F600090916D01A0916E01B0916F012FBF4091E2
:100F70005A0150915B0160915C0170915D01841B8D
:100F8000950BA60BB70B883E9340A105B10508F45D
:100F900083C02FB7F89480916C0190916D01A0915E
:100FA0006E01B0916F012FBF80935A0190935B0146
:100FB000A0935C01B0935D018EE00E943D015C0155
:100FC0008FE00E943D017C0180E10E943D016C01A7
:100FD0006CE471E080E791E00E94C003B501BB0CB6
:100FE000880B990B0E9473092DE038E643E55BE31B
:100FF0000E94280A20E030E048EC52E40E94280ACF
:10100000AB01BC0121E080E791E00E941B046FE48A
:1010100071E080E791E00E94C003B701FF0C880BEC
:10102000990B0E94730920E030E048EC52E40E94E2
:10103000280A20E030EC4FE754E40E94D008AB01CE
:10104000BC0120E080E791E00E941B0463E571E0B1
:1010500080E791E00E94C0030D2C000CEE08FF0811
:101060002AE0B701A601F7FE0DC06DE280E791E02E
:101070000E944F0144275527BA014C195D096E099A
:101080007F092AE080E791E00E94CF0367E571E0E5
:1010900080E791E00E94C003209709F4C8CE0E9427
:1010A000C001882309F4C3CE0E940000C0CE109274
:1010B0006201FBCE81508093620121CF5058BB2743
:1010C000AA270E9476080C94E9090E94DB0938F0EF
:1010D0000E94E20920F039F49F3F19F426F40C94A1
:1010E000D8090EF4E095E7FB0C94D209E92F0E9491
:1010F000FA0958F3BA17620773078407950720F0B7
:1011000079F4A6F50C941C0A0EF4E0950B2EBA2F78
:10111000A02D0B01B90190010C01CA01A0011124FD
:10112000FF27591B99F0593F50F4503E68F11A16A9
:10113000F040A22F232F342F4427585FF3CF46953A
:1011400037952795A795F0405395C9F77EF41F165C
:10115000BA0B620B730B840BBAF09150A1F0FF0F26
:10116000BB1F661F771F881FC2F70EC0BA0F621F12
:10117000731F841F48F4879577956795B795F79502
:101180009E3F08F0B0CF9395880F08F09927EE0F97
:101190009795879508950E94AE0908F481E0089517
:1011A0000E94E4080C94E9090E94E20958F00E94A8
:1011B000DB0940F029F45F3F29F00C94D20951116A
:1011C0000C941D0A0C94D8090E94FA0968F399231B
:1011D000B1F3552391F3951B550BBB27AA27621733
:1011E0007307840738F09F5F5F4F220F331F441F40
:1011F000AA1FA9F335D00E2E3AF0E0E832D0915074
:101200005040E695001CCAF72BD0FE2F29D0660F60
:10121000771F881FBB1F261737074807AB07B0E8A3
:1012200009F0BB0B802DBF01FF2793585F4F3AF0A9
:101230009E3F510578F00C94D2090C941D0A5F3F33
:10124000E4F3983ED4F3869577956795B795F7952F
:101250009F5FC9F7880F911D9695879597F9089517
:10126000E1E0660F771F881FBB1F621773078407B3
:10127000BA0720F0621B730B840BBA0BEE1F88F7C2
:10128000E09508950E94020A88F09F5798F0B92FC0
:101290009927B751B0F0E1F0660F771F881F991FAB
:1012A0001AF0BA95C9F714C0B13091F00E941C0A27
:1012B000B1E008950C941C0A672F782F8827B85F37
:1012C00039F0B93FCCF3869577956795B395D9F703
:1012D0003EF490958095709561957F4F8F4F9F4F0D
:1012E0000895E89409C097FB3EF490958095709519
:1012F00061957F4F8F4F9F4F9923A9F0F92F96E962
:10130000BB279395F695879577956795B795F111D6
:10131000F8CFFAF4BB0F11F460FF1BC06F5F7F4F73
:101320008F4F9F4F16C0882311F096E911C0772385
:1013300021F09EE8872F762F05C0662371F096E88E
:10134000862F70E060E02AF09A95660F771F881F5D
:10135000DAF7880F9695879597F90895990F000801
:10136000550FAA0BE0E8FEEF16161706E807F90777
:10137000C0F012161306E407F50798F0621B730B12
:10138000840B950B39F40A2661F0232B242B252B93
:1013900021F408950A2609F4A140A6958FEF811D36
:1013A000811D089597F99F6780E870E060E00895D7
:1013B0009FEF80EC089500240A941616170618066D
:1013C0000906089500240A94121613061406050649
:1013D0000895092E0394000C11F4882352F0BB0FDA
:1013E00040F4BF2B11F460FF04C06F5F7F4F8F4F3D
:1013F0009F4F089557FD9058440F551F59F05F3F78
:1014000071F04795880F97FB991F61F09F3F79F026
:1014100087950895121613061406551FF2CF4695A8
:10142000F1DF08C0161617061806991FF1CF86952A
:101430007105610508940895E894BB27662777270E
:10144000CB0197F908950E94AE0908F48FEF089533
:101450000E943B0A0C94E9090E94DB0938F00E94C3
:10146000E20920F0952311F00C94D2090C94D809CC
:1014700011240C941D0A0E94FA0970F3959FC1F380
:10148000950F50E0551F629FF001729FBB27F00D32
:10149000B11D639FAA27F00DB11DAA1F649F662787
:1014A000B00DA11D661F829F2227B00DA11D621FD6
:1014B000739FB00DA11D621F839FA00D611D221F90
:1014C000749F3327A00D611D231F849F600D211D74
:1014D000822F762F6A2F11249F5750409AF0F1F0F7
:1014E00088234AF0EE0FFF1FBB1F661F771F881F60
:1014F00091505040A9F79E3F510580F00C94D209BD
:101500000C941D0A5F3FE4F3983ED4F386957795DB
:101510006795B795F795E7959F5FC1F7FE2B880F05
:10152000911D9695879597F908950E94AE09880BAD
:10153000990B0895A1E21A2EAA1BBB1BFD010DC039
:10154000AA1FBB1FEE1FFF1FA217B307E407F50773
:1015500020F0A21BB30BE40BF50B661F771F881F4F
:10156000991F1A9469F760957095809590959B01E5
:10157000AC01BD01CF010895EE0FFF1F0590F4915E
:10158000E02D0994F894FFCF010100000000F6015E
:10159000560183014302B4019201A601000000003C
:1015A000BA035601640263026E616E00696E6600E2
:1015B0006F76660054656D703A2000430048756D83
:1015C00069646974793A002500476173204C657637
:1015D000656C3A00542C002C482C002C472C000D34
:0215E0000A00FF
:107E0000112484B714BE81FFF0D085E080938100F7
:107E100082E08093C00088E18093C10086E0809377
:107E2000C20080E18093C4008EE0C9D0259A86E02C
:107E300020E33CEF91E0309385002093840096BBD3
:107E4000B09BFECF1D9AA8958150A9F7CC24DD24C4
:107E500088248394B5E0AB2EA1E19A2EF3E0BF2EE7
:107E6000A2D0813461F49FD0082FAFD0023811F036
:107E7000013811F484E001C083E08DD089C08234E0
:107E800011F484E103C0853419F485E0A6D080C0E4
:107E9000853579F488D0E82EFF2485D0082F10E0AE
:107EA000102F00270E291F29000F111F8ED06801E7
:107EB0006FC0863521F484E090D080E0DECF843638
:107EC00009F040C070D06FD0082F6DD080E0C81688
:107ED00080E7D80618F4F601B7BEE895C0E0D1E017
:107EE00062D089930C17E1F7F0E0CF16F0E7DF06D8
:107EF00018F0F601B7BEE89568D007B600FCFDCFD4
:107F0000A601A0E0B1E02C9130E011968C91119780
:107F100090E0982F8827822B932B1296FA010C0160
:107F200087BEE89511244E5F5F4FF1E0A038BF0790
:107F300051F7F601A7BEE89507B600FCFDCF97BE46
:107F4000E89526C08437B1F42ED02DD0F82E2BD052
:107F50003CD0F601EF2C8F010F5F1F4F84911BD097
:107F6000EA94F801C1F70894C11CD11CFA94CF0C13
:107F7000D11C0EC0853739F428D08EE10CD085E9AC
:107F80000AD08FE07ACF813511F488E018D01DD067
:107F900080E101D065CF982F8091C00085FFFCCF94
:107FA0009093C60008958091C00087FFFCCF809118
:107FB000C00084FD01C0A8958091C6000895E0E648
:107FC000F0E098E1908380830895EDDF803219F02E
:107FD00088E0F5DFFFCF84E1DECF1F93182FE3DFCA
:107FE0001150E9F7F2DF1F91089580E0E8DFEE27F6
:047FF000FF270994CA
:027FFE00040479
:00000001FF
